{
  "_format": "hh-sol-artifact-1",
  "contractName": "MemeCoinFactory",
  "sourceName": "contracts/MemeCoinFactory.sol",
  "abi": [
    {
      "inputs": [
        {
          "internalType": "uint256",
          "name": "deployFee_",
          "type": "uint256"
        }
      ],
      "stateMutability": "nonpayable",
      "type": "constructor"
    },
    {
      "inputs": [
        {
          "internalType": "address",
          "name": "owner",
          "type": "address"
        }
      ],
      "name": "OwnableInvalidOwner",
      "type": "error"
    },
    {
      "inputs": [
        {
          "internalType": "address",
          "name": "account",
          "type": "address"
        }
      ],
      "name": "OwnableUnauthorizedAccount",
      "type": "error"
    },
    {
      "anonymous": false,
      "inputs": [
        {
          "indexed": true,
          "internalType": "uint256",
          "name": "id",
          "type": "uint256"
        },
        {
          "indexed": true,
          "internalType": "address",
          "name": "creator",
          "type": "address"
        },
        {
          "indexed": false,
          "internalType": "address",
          "name": "token",
          "type": "address"
        },
        {
          "indexed": false,
          "internalType": "address",
          "name": "curve",
          "type": "address"
        },
        {
          "indexed": false,
          "internalType": "string",
          "name": "name",
          "type": "string"
        },
        {
          "indexed": false,
          "internalType": "string",
          "name": "symbol",
          "type": "string"
        },
        {
          "indexed": false,
          "internalType": "uint256",
          "name": "initialSupply",
          "type": "uint256"
        },
        {
          "indexed": false,
          "internalType": "uint256",
          "name": "curveSupply",
          "type": "uint256"
        }
      ],
      "name": "MemeLaunched",
      "type": "event"
    },
    {
      "anonymous": false,
      "inputs": [
        {
          "indexed": true,
          "internalType": "address",
          "name": "previousOwner",
          "type": "address"
        },
        {
          "indexed": true,
          "internalType": "address",
          "name": "newOwner",
          "type": "address"
        }
      ],
      "name": "OwnershipTransferred",
      "type": "event"
    },
    {
      "inputs": [
        {
          "internalType": "string",
          "name": "name_",
          "type": "string"
        },
        {
          "internalType": "string",
          "name": "symbol_",
          "type": "string"
        },
        {
          "internalType": "uint256",
          "name": "initialSupply_",
          "type": "uint256"
        },
        {
          "internalType": "uint256",
          "name": "curveSupply_",
          "type": "uint256"
        },
        {
          "internalType": "uint256",
          "name": "basePrice_",
          "type": "uint256"
        },
        {
          "internalType": "uint256",
          "name": "pricePerToken_",
          "type": "uint256"
        }
      ],
      "name": "createMemeWithCurve",
      "outputs": [
        {
          "internalType": "uint256",
          "name": "id",
          "type": "uint256"
        },
        {
          "internalType": "address",
          "name": "token",
          "type": "address"
        },
        {
          "internalType": "address",
          "name": "curve",
          "type": "address"
        }
      ],
      "stateMutability": "payable",
      "type": "function"
    },
    {
      "inputs": [],
      "name": "deployFee",
      "outputs": [
        {
          "internalType": "uint256",
          "name": "",
          "type": "uint256"
        }
      ],
      "stateMutability": "view",
      "type": "function"
    },
    {
      "inputs": [
        {
          "internalType": "uint256",
          "name": "",
          "type": "uint256"
        }
      ],
      "name": "memes",
      "outputs": [
        {
          "internalType": "address",
          "name": "token",
          "type": "address"
        },
        {
          "internalType": "address",
          "name": "curve",
          "type": "address"
        },
        {
          "internalType": "address",
          "name": "creator",
          "type": "address"
        },
        {
          "internalType": "string",
          "name": "name",
          "type": "string"
        },
        {
          "internalType": "string",
          "name": "symbol",
          "type": "string"
        },
        {
          "internalType": "uint256",
          "name": "initialSupply",
          "type": "uint256"
        },
        {
          "internalType": "uint256",
          "name": "curveSupply",
          "type": "uint256"
        }
      ],
      "stateMutability": "view",
      "type": "function"
    },
    {
      "inputs": [],
      "name": "memesCount",
      "outputs": [
        {
          "internalType": "uint256",
          "name": "",
          "type": "uint256"
        }
      ],
      "stateMutability": "view",
      "type": "function"
    },
    {
      "inputs": [],
      "name": "owner",
      "outputs": [
        {
          "internalType": "address",
          "name": "",
          "type": "address"
        }
      ],
      "stateMutability": "view",
      "type": "function"
    },
    {
      "inputs": [],
      "name": "renounceOwnership",
      "outputs": [],
      "stateMutability": "nonpayable",
      "type": "function"
    },
    {
      "inputs": [
        {
          "internalType": "uint256",
          "name": "newFee",
          "type": "uint256"
        }
      ],
      "name": "setDeployFee",
      "outputs": [],
      "stateMutability": "nonpayable",
      "type": "function"
    },
    {
      "inputs": [
        {
          "internalType": "address",
          "name": "newOwner",
          "type": "address"
        }
      ],
      "name": "transferOwnership",
      "outputs": [],
      "stateMutability": "nonpayable",
      "type": "function"
    },
    {
      "inputs": [
        {
          "internalType": "address payable",
          "name": "to",
          "type": "address"
        }
      ],
      "name": "withdrawFees",
      "outputs": [],
      "stateMutability": "nonpayable",
      "type": "function"
    }
  ],
  "bytecode": "0x6080346100b657601f6123e838819003918201601f19168301916001600160401b038311848410176100bb578084926020946040528339810103126100b65751331561009d5760008054336001600160a01b0319821681178355604051939290916001600160a01b0316907f8be0079c531659141344cd1fd0a4f28419497f9722a3daafe3b4186f6b6457e09080a360015561231690816100d28239f35b604051631e4fbdf760e01b815260006004820152602490fd5b600080fd5b634e487b7160e01b600052604160045260246000fdfe608060405260043610156200001357600080fd5b60003560e01c8063164e68de1462000c6557806321c81ed814620002ce578063388f60641462000211578063715018a614620001b45780638da5cb5b1462000189578063a9e529871462000164578063eb2a5d2c1462000144578063f2a2f6f514620001245763f2fde38b146200008957600080fd5b346200011f5760203660031901126200011f576004356001600160a01b03818116918290036200011f57620000bd62000f3d565b81156200010657600054826bffffffffffffffffffffffff60a01b821617600055167f8be0079c531659141344cd1fd0a4f28419497f9722a3daafe3b4186f6b6457e0600080a3005b604051631e4fbdf760e01b815260006004820152602490fd5b600080fd5b346200011f5760003660031901126200011f576020600254604051908152f35b346200011f5760003660031901126200011f576020600154604051908152f35b346200011f5760203660031901126200011f576200018162000f3d565b600435600155005b346200011f5760003660031901126200011f576000546040516001600160a01b039091168152602090f35b346200011f5760003660031901126200011f57620001d162000f3d565b600080546001600160a01b0319811682556001600160a01b03167f8be0079c531659141344cd1fd0a4f28419497f9722a3daafe3b4186f6b6457e08280a3005b346200011f5760203660031901126200011f576004356002548110156200011f576200023d9062000d81565b508054600182015460028301546001600160a01b0391821693928216929116620002bf6200026e6003840162000e49565b620002b0620002806004860162000e49565b91600660058701549601549460405198899889526020890152604088015260e0606088015260e087019062000efb565b90858203608087015262000efb565b9160a084015260c08301520390f35b60c03660031901126200011f5760043567ffffffffffffffff81116200011f57620002fe90369060040162000d50565b90602491823567ffffffffffffffff81116200011f576200032490369060040162000d50565b91801562000c3457821562000c01576044351562000bd05760643515158062000bc1575b1562000b8b57600154341062000b5857604051610cca818181011067ffffffffffffffff828401111762000b4357808291620016178339608081830152620003af6200039b608083850101868a62000f6a565b828401810360208486010152878762000f6a565b9060443560408285010152606030918401015203906000f0918215620007e457604051610618818181011067ffffffffffffffff8284011117620009f157818160809262000fff83396001600160a01b038716908201908152608435602082015260a43560408201523360608201520301906000f0938415620007e457606435670de0b6b3a76400006064350204670de0b6b3a76400001460643515171562000b2e5760405163a9059cbb60e01b81526001600160a01b0386166004820152606435670de0b6b3a76400000260248201526020818060448101038160006001600160a01b038a165af1908115620007e45760009162000b0a575b501562000ace57606435604435036044358111620007f057670de0b6b3a76400008102908104670de0b6b3a764000014606435604435141715620007f0578062000a06575b506040518060e081011067ffffffffffffffff60e083011117620009f15760e0810160409081526001600160a01b0386811683528716602083019081523391830191825291906200054136878b62000fc2565b90606083019182526200055636868862000fc2565b608084015260443560a084015260643560c084015260025468010000000000000000811015620009dc5780600162000592920160025562000d81565b949094620009c757835185546001600160a01b039182166001600160a01b0319918216178755915160018701805491831691841691909117905591516002860180549190931691161790555180519067ffffffffffffffff8211620008d757819062000602600386015462000dd3565b601f81116200096f575b50602090601f8311600114620008f857600092620008ec575b50508160011b916000199060031b1c19161760038301555b608081015180519067ffffffffffffffff8211620008d75762000664600485015462000dd3565b601f81116200088b575b50602090601f8311600114620008115791806006949260c09460009262000805575b50508160011b916000199060031b1c19161760048501555b60a081015160058501550151910155600254600019810196908711620007f05786927f10e916a3cc5653524012074cdc48aa46ea4fd18f107f95863bc7aeb41d0943dd926200072462000733936040519760018060a01b038a16895260018060a01b038b1660208a015260c060408a015260c089019162000f6a565b91868303606088015262000f6a565b92604435608082015260643560a08201528033940390a36001600160a01b0381163b156200011f5760405163f2fde38b60e01b81523360048201526000818681836001600160a01b0387165af18015620007e457620007b1575b50604080519384526001600160a01b03918216602085015291169082015260609150f35b67ffffffffffffffff8111620007cf5760609450604052846200078d565b84634e487b7160e01b60005260416004526000fd5b6040513d6000823e3d90fd5b87634e487b7160e01b60005260116004526000fd5b015190508d8062000690565b906004850160005260206000209160005b601f1985168110620008725750926006949260019260c09583601f1981161062000858575b505050811b016004850155620006a8565b015160001960f88460031b161c191690558d808062000847565b9192602060018192868501518155019401920162000822565b600485016000526020600020601f840160051c810160208510620008cf575b601f830160051c82018110620008c25750506200066e565b60008155600101620008aa565b5080620008aa565b8a634e487b7160e01b60005260416004526000fd5b015190508b8062000625565b9250600385016000526020600020906000935b601f198416851062000953576001945083601f1981161062000939575b505050811b0160038301556200063d565b015160001960f88460031b161c191690558b808062000928565b818101518355602094850194600190930192909101906200090b565b909150600385016000526020600020601f840160051c810160208510620009bf575b90849392915b601f830160051c82018110620009af5750506200060c565b6000815585945060010162000997565b508062000991565b8b634e487b7160e01b60005260006004526000fd5b8b634e487b7160e01b60005260416004526000fd5b87634e487b7160e01b60005260416004526000fd5b60405163a9059cbb60e01b8152336004820152602481019190915260208160448160006001600160a01b038a165af1908115620007e45760009162000a98575b501562000a545787620004ee565b60405162461bcd60e51b8152602060048201526017818901527f63726561746f72207472616e73666572206661696c65640000000000000000006044820152606490fd5b62000abf915060203d60201162000ac6575b62000ab6818362000e10565b81019062000f8b565b8862000a46565b503d62000aaa565b60405162461bcd60e51b8152602060048201526015818901527418dd5c9d99481d1c985b9cd9995c8819985a5b1959605a1b6044820152606490fd5b62000b27915060203d60201162000ac65762000ab6818362000e10565b88620004a9565b86634e487b7160e01b60005260116004526000fd5b86634e487b7160e01b60005260416004526000fd5b60405162461bcd60e51b815260206004820152600c818701526b199959481b9bdd081c185a5960a21b6044820152606490fd5b60405162461bcd60e51b815260206004820152600f818701526e626164206375727665537570706c7960881b6044820152606490fd5b50604435606435111562000348565b60405162461bcd60e51b815260206004820152600a81870152690737570706c79203d20360b41b6044820152606490fd5b60405162461bcd60e51b815260206004820152600c818701526b73796d626f6c20656d70747960a01b6044820152606490fd5b60405162461bcd60e51b815260206004820152600a81870152696e616d6520656d70747960b01b6044820152606490fd5b346200011f5760203660031901126200011f576004356001600160a01b038116908190036200011f5762000c9862000f3d565b801562000d1c5760008080809347905af13d1562000d16573d62000cbc8162000fa5565b9062000ccc604051928362000e10565b8152600060203d92013e5b1562000cdf57005b60405162461bcd60e51b815260206004820152600f60248201526e151c985b9cd9995c8819985a5b1959608a1b6044820152606490fd5b62000cd7565b60405162461bcd60e51b815260206004820152600c60248201526b7a65726f206164647265737360a01b6044820152606490fd5b9181601f840112156200011f5782359167ffffffffffffffff83116200011f57602083818601950101116200011f57565b60025481101562000dbd576007906002600052027f405787fa12a823e0f2b7631cc41b3ba8828b3321ca811111fa75cd3aa3bb5ace0190600090565b634e487b7160e01b600052603260045260246000fd5b90600182811c9216801562000e05575b602083101462000def57565b634e487b7160e01b600052602260045260246000fd5b91607f169162000de3565b90601f8019910116810190811067ffffffffffffffff82111762000e3357604052565b634e487b7160e01b600052604160045260246000fd5b906040519182600082549262000e5f8462000dd3565b90818452600194858116908160001462000ed6575060011462000e8f575b505062000e8d9250038362000e10565b565b9093915060005260209081600020936000915b81831062000ebd57505062000e8d9350820101388062000e7d565b8554888401850152948501948794509183019162000ea2565b91505062000e8d94506020925060ff191682840152151560051b820101388062000e7d565b919082519283825260005b84811062000f28575050826000602080949584010152601f8019910116010190565b60208183018101518483018201520162000f06565b6000546001600160a01b0316330362000f5257565b60405163118cdaa760e01b8152336004820152602490fd5b908060209392818452848401376000828201840152601f01601f1916010190565b908160209103126200011f575180151581036200011f5790565b67ffffffffffffffff811162000e3357601f01601f191660200190565b92919262000fd08262000fa5565b9162000fe0604051938462000e10565b8294818452818301116200011f57828160209384600096013701015256fe6080346100e857601f61061838819003918201601f19168301916001600160401b038311848410176100ed578084926080946040528339810103126100e85780516001600160a01b039190828116908190036100e85760208201519060606040840151930151938085168095036100e85784156100cf576000549460018060a01b031991818388161760005560405196167f8be0079c531659141344cd1fd0a4f28419497f9722a3daafe3b4186f6b6457e0600080a3600154161760015560025560035561051490816101048239f35b604051631e4fbdf760e01b815260006004820152602490fd5b600080fd5b634e487b7160e01b600052604160045260246000fdfe608060408181526004918236101561001657600080fd5b600092833560e01c91826302c7e7af146103e357508163715018a6146103895781637b1b1de61461036a5781638da5cb5b14610342578163a7c18c1414610315578163c7876ea4146102f6578163d96a094a14610146578163f2fde38b146100b3575063fc0c546a1461008857600080fd5b346100af57816003193601126100af5760015490516001600160a01b039091168152602090f35b5080fd5b91905034610142576020366003190112610142576001600160a01b0382358181169391929084900361013e576100e76103fe565b831561012857505082546001600160a01b0319811683178455167f8be0079c531659141344cd1fd0a4f28419497f9722a3daafe3b4186f6b6457e08380a380f35b51631e4fbdf760e01b8152908101849052602490fd5b8480fd5b8280fd5b91602091503660031901821361029a578235610163818554610460565b34106102c2576001546001600160a01b0391908216670de0b6b3a76400008083029083820414831517156102af578588949392604486938851948593849263a9059cbb60e01b84528d339085015260248401525af180156102a5579084939291610269575b5082916101d783928954610453565b885534908254165af13d15610264573d67ffffffffffffffff81116102515782519061020c601f8201601f19168601836104a6565b815285843d92013e5b1561021e578380f35b5162461bcd60e51b815291820152600f60248201526e151c985b9cd9995c8819985a5b1959608a1b604482015260649150fd5b634e487b7160e01b865260418552602486fd5b610215565b9092508581813d831161029e575b61028181836104a6565b8101031261029a575180151503610142578291386101c8565b8380fd5b503d610277565b85513d86823e3d90fd5b634e487b7160e01b885260118752602488fd5b505162461bcd60e51b815291820152600f60248201526e4e6f7420656e6f7567682043454c4f60881b604482015260649150fd5b5050346100af57816003193601126100af576020906002549051908152f35b82843461033f578160031936011261033f57506103386020926024359035610460565b9051908152f35b80fd5b5050346100af57816003193601126100af57905490516001600160a01b039091168152602090f35b5050346100af57816003193601126100af576020906003549051908152f35b833461033f578060031936011261033f576103a26103fe565b80546001600160a01b03198116825581906001600160a01b03167f8be0079c531659141344cd1fd0a4f28419497f9722a3daafe3b4186f6b6457e08280a380f35b84913461014257826003193601126101425760209250548152f35b6000546001600160a01b0316330361041257565b60405163118cdaa760e01b8152336004820152602490fd5b8181029291811591840414171561043d57565b634e487b7160e01b600052601160045260246000fd5b9190820180921161043d57565b61049d6104a3926104976003549161048e6104876104808360025461042a565b968361042a565b918061042a565b60011c90610453565b9061042a565b90610453565b90565b90601f8019910116810190811067ffffffffffffffff8211176104c857604052565b634e487b7160e01b600052604160045260246000fdfea2646970667358221220a3850a03f6c129726ff2c080adfb8aae34880fca9a51a322edcc65b5458f031864736f6c63430008140033604060808152346200040f5762000cca803803806200001e8162000414565b92833981016080828203126200040f5781516001600160401b0392908381116200040f5782620000509183016200043a565b9260209283830151908282116200040f576200006e9184016200043a565b906060868401519301519460018060a01b03918287168097036200040f5781518181116200030f576003908154906001948583811c9316801562000404575b8a841014620003ee578190601f9384811162000398575b508a90848311600114620003315760009262000325575b505060001982851b1c191690851b1782555b85519283116200030f5760049586548581811c9116801562000304575b8a821014620002ef57828111620002a4575b508891841160011462000239579383949184926000956200022d575b50501b92600019911b1c19161782555b84156200021657600580546001600160a01b0319811687179091558591167f8be0079c531659141344cd1fd0a4f28419497f9722a3daafe3b4186f6b6457e0600080a3670de0b6b3a76400009182810292818404149015171562000201576002549082820180921162000201575060025560008381528083528481208054830190558451918252917fddf252ad1be2c89b69c2b068fc378daa952ba7f163c4a11628f55a4df523b3ef91a35161081d9081620004ad8239f35b601190634e487b7160e01b6000525260246000fd5b8551631e4fbdf760e01b8152600081840152602490fd5b01519350388062000138565b9190601f1984169287600052848a6000209460005b8c898383106200028c575050501062000271575b50505050811b01825562000148565b01519060f884600019921b161c191690553880808062000262565b8686015189559097019694850194889350016200024e565b87600052896000208380870160051c8201928c8810620002e5575b0160051c019086905b828110620002d85750506200011c565b60008155018690620002c8565b92508192620002bf565b602288634e487b7160e01b6000525260246000fd5b90607f16906200010a565b634e487b7160e01b600052604160045260246000fd5b015190503880620000db565b60008681528c8120899550929190601f198516908e5b82821062000380575050841162000367575b505050811b018255620000ed565b015160001983871b60f8161c1916905538808062000359565b8385015186558b979095019493840193018e62000347565b909150846000528a6000208480850160051c8201928d8610620003e4575b918991869594930160051c01915b828110620003d4575050620000c4565b60008155859450899101620003c4565b92508192620003b6565b634e487b7160e01b600052602260045260246000fd5b92607f1692620000ad565b600080fd5b6040519190601f01601f191682016001600160401b038111838210176200030f57604052565b919080601f840112156200040f5782516001600160401b0381116200030f5760209062000470601f8201601f1916830162000414565b928184528282870101116200040f5760005b8181106200049857508260009394955001015290565b85810183015184820184015282016200048256fe6080604081815260048036101561001557600080fd5b600092833560e01c90816306fdde031461056e57508063095ea7b3146104c557806318160ddd146104a657806323b872dd146103b3578063313ce5671461039757806370a0823114610360578063715018a6146103005780638da5cb5b146102d757806395d89b41146101b7578063a9059cbb14610186578063dd62ed3e146101395763f2fde38b146100a757600080fd5b34610135576020366003190112610135576100c06106ac565b906100c96106dd565b6001600160a01b0391821692831561011f575050600554826bffffffffffffffffffffffff60a01b821617600555167f8be0079c531659141344cd1fd0a4f28419497f9722a3daafe3b4186f6b6457e08380a380f35b51631e4fbdf760e01b8152908101849052602490fd5b8280fd5b505034610182578060031936011261018257806020926101576106ac565b61015f6106c7565b6001600160a01b0391821683526001865283832091168252845220549051908152f35b5080fd5b5050346101825780600319360112610182576020906101b06101a66106ac565b6024359033610709565b5160018152f35b50919034610182578160031936011261018257805190828454600181811c908083169283156102cd575b60209384841081146102ba5783885290811561029e5750600114610249575b505050829003601f01601f191682019267ffffffffffffffff8411838510176102365750829182610232925282610663565b0390f35b634e487b7160e01b815260418552602490fd5b8787529192508591837f8a35acfbc15ff81a39ae7d344fd709f28e8600b4aa8c65c6b64bfe7fe36bd19b5b83851061028a5750505050830101388080610200565b805488860183015293019284908201610274565b60ff1916878501525050151560051b8401019050388080610200565b634e487b7160e01b895260228a52602489fd5b91607f16916101e1565b50503461018257816003193601126101825760055490516001600160a01b039091168152602090f35b833461035d578060031936011261035d576103196106dd565b600580546001600160a01b0319811690915581906001600160a01b03167f8be0079c531659141344cd1fd0a4f28419497f9722a3daafe3b4186f6b6457e08280a380f35b80fd5b5050346101825760203660031901126101825760209181906001600160a01b036103886106ac565b16815280845220549051908152f35b5050346101825781600319360112610182576020905160128152f35b50823461035d57606036600319011261035d576103ce6106ac565b6103d66106c7565b916044359360018060a01b038316808352600160205286832033845260205286832054916000198310610412575b6020886101b0898989610709565b86831061047a57811561046357331561044c575082526001602090815286832033845281529186902090859003905582906101b087610404565b8751634a1406b160e11b8152908101849052602490fd5b875163e602df0560e01b8152908101849052602490fd5b8751637dc7a0d960e11b8152339181019182526020820193909352604081018790528291506060010390fd5b5050346101825781600319360112610182576020906002549051908152f35b50346101355781600319360112610135576104de6106ac565b602435903315610557576001600160a01b031691821561054057508083602095338152600187528181208582528752205582519081527f8c5be1e5ebec7d5bd14f71427d1e84f3dd0314c0f7b2291e5b200ac8c7c3b925843392a35160018152f35b8351634a1406b160e11b8152908101859052602490fd5b835163e602df0560e01b8152808401869052602490fd5b849150833461013557826003193601126101355782600354600181811c90808316928315610659575b60209384841081146102ba5783885290811561063d57506001146105e757505050829003601f01601f191682019267ffffffffffffffff8411838510176102365750829182610232925282610663565b600387529192508591837fc2575a0e9e593c00f959f8c92f12db2869c3395a3b0502d05e2516446f71f85b5b8385106106295750505050830101858080610200565b805488860183015293019284908201610613565b60ff1916878501525050151560051b8401019050858080610200565b91607f1691610597565b6020808252825181830181905290939260005b82811061069857505060409293506000838284010152601f8019910116010190565b818101860151848201604001528501610676565b600435906001600160a01b03821682036106c257565b600080fd5b602435906001600160a01b03821682036106c257565b6005546001600160a01b031633036106f157565b60405163118cdaa760e01b8152336004820152602490fd5b916001600160a01b038084169283156107ce57169283156107b55760009083825281602052604082205490838210610783575091604082827fddf252ad1be2c89b69c2b068fc378daa952ba7f163c4a11628f55a4df523b3ef958760209652828652038282205586815220818154019055604051908152a3565b60405163391434e360e21b81526001600160a01b03919091166004820152602481019190915260448101839052606490fd5b60405163ec442f0560e01b815260006004820152602490fd5b604051634b637e8f60e11b815260006004820152602490fdfea2646970667358221220d4bc9ca99b39208e5793c540ec29faf3cd5be2ac1d980577b5483c0b007e992b64736f6c63430008140033a2646970667358221220c33ec6e694ea558e09c3b391f58f883b3835d10e7165c4d72a13764061a50cfc64736f6c63430008140033",
  "linkReferences": {},
  "deployedLinkReferences": {}
}