{
  "_format": "hh-sol-artifact-1",
  "contractName": "MemeBondingCurve",
  "sourceName": "contracts/MemeBondingCurve.sol",
  "abi": [
    {
      "inputs": [
        {
          "internalType": "contract IERC20",
          "name": "token_",
          "type": "address"
        },
        {
          "internalType": "uint256",
          "name": "basePrice_",
          "type": "uint256"
        },
        {
          "internalType": "uint256",
          "name": "pricePerToken_",
          "type": "uint256"
        },
        {
          "internalType": "address",
          "name": "owner_",
          "type": "address"
        }
      ],
      "stateMutability": "nonpayable",
      "type": "constructor"
    },
    {
      "inputs": [
        {
          "internalType": "address",
          "name": "owner",
          "type": "address"
        }
      ],
      "name": "OwnableInvalidOwner",
      "type": "error"
    },
    {
      "inputs": [
        {
          "internalType": "address",
          "name": "account",
          "type": "address"
        }
      ],
      "name": "OwnableUnauthorizedAccount",
      "type": "error"
    },
    {
      "anonymous": false,
      "inputs": [
        {
          "indexed": true,
          "internalType": "address",
          "name": "previousOwner",
          "type": "address"
        },
        {
          "indexed": true,
          "internalType": "address",
          "name": "newOwner",
          "type": "address"
        }
      ],
      "name": "OwnershipTransferred",
      "type": "event"
    },
    {
      "inputs": [],
      "name": "basePrice",
      "outputs": [
        {
          "internalType": "uint256",
          "name": "",
          "type": "uint256"
        }
      ],
      "stateMutability": "view",
      "type": "function"
    },
    {
      "inputs": [
        {
          "internalType": "uint256",
          "name": "amount",
          "type": "uint256"
        }
      ],
      "name": "buy",
      "outputs": [],
      "stateMutability": "payable",
      "type": "function"
    },
    {
      "inputs": [
        {
          "internalType": "uint256",
          "name": "currentSupply",
          "type": "uint256"
        },
        {
          "internalType": "uint256",
          "name": "amount",
          "type": "uint256"
        }
      ],
      "name": "getCost",
      "outputs": [
        {
          "internalType": "uint256",
          "name": "",
          "type": "uint256"
        }
      ],
      "stateMutability": "view",
      "type": "function"
    },
    {
      "inputs": [],
      "name": "owner",
      "outputs": [
        {
          "internalType": "address",
          "name": "",
          "type": "address"
        }
      ],
      "stateMutability": "view",
      "type": "function"
    },
    {
      "inputs": [],
      "name": "pricePerToken",
      "outputs": [
        {
          "internalType": "uint256",
          "name": "",
          "type": "uint256"
        }
      ],
      "stateMutability": "view",
      "type": "function"
    },
    {
      "inputs": [],
      "name": "renounceOwnership",
      "outputs": [],
      "stateMutability": "nonpayable",
      "type": "function"
    },
    {
      "inputs": [],
      "name": "sold",
      "outputs": [
        {
          "internalType": "uint256",
          "name": "",
          "type": "uint256"
        }
      ],
      "stateMutability": "view",
      "type": "function"
    },
    {
      "inputs": [],
      "name": "token",
      "outputs": [
        {
          "internalType": "contract IERC20",
          "name": "",
          "type": "address"
        }
      ],
      "stateMutability": "view",
      "type": "function"
    },
    {
      "inputs": [
        {
          "internalType": "address",
          "name": "newOwner",
          "type": "address"
        }
      ],
      "name": "transferOwnership",
      "outputs": [],
      "stateMutability": "nonpayable",
      "type": "function"
    }
  ],
  "bytecode": "0x6080346100e857601f61061838819003918201601f19168301916001600160401b038311848410176100ed578084926080946040528339810103126100e85780516001600160a01b039190828116908190036100e85760208201519060606040840151930151938085168095036100e85784156100cf576000549460018060a01b031991818388161760005560405196167f8be0079c531659141344cd1fd0a4f28419497f9722a3daafe3b4186f6b6457e0600080a3600154161760015560025560035561051490816101048239f35b604051631e4fbdf760e01b815260006004820152602490fd5b600080fd5b634e487b7160e01b600052604160045260246000fdfe608060408181526004918236101561001657600080fd5b600092833560e01c91826302c7e7af146103e357508163715018a6146103895781637b1b1de61461036a5781638da5cb5b14610342578163a7c18c1414610315578163c7876ea4146102f6578163d96a094a14610146578163f2fde38b146100b3575063fc0c546a1461008857600080fd5b346100af57816003193601126100af5760015490516001600160a01b039091168152602090f35b5080fd5b91905034610142576020366003190112610142576001600160a01b0382358181169391929084900361013e576100e76103fe565b831561012857505082546001600160a01b0319811683178455167f8be0079c531659141344cd1fd0a4f28419497f9722a3daafe3b4186f6b6457e08380a380f35b51631e4fbdf760e01b8152908101849052602490fd5b8480fd5b8280fd5b91602091503660031901821361029a578235610163818554610460565b34106102c2576001546001600160a01b0391908216670de0b6b3a76400008083029083820414831517156102af578588949392604486938851948593849263a9059cbb60e01b84528d339085015260248401525af180156102a5579084939291610269575b5082916101d783928954610453565b885534908254165af13d15610264573d67ffffffffffffffff81116102515782519061020c601f8201601f19168601836104a6565b815285843d92013e5b1561021e578380f35b5162461bcd60e51b815291820152600f60248201526e151c985b9cd9995c8819985a5b1959608a1b604482015260649150fd5b634e487b7160e01b865260418552602486fd5b610215565b9092508581813d831161029e575b61028181836104a6565b8101031261029a575180151503610142578291386101c8565b8380fd5b503d610277565b85513d86823e3d90fd5b634e487b7160e01b885260118752602488fd5b505162461bcd60e51b815291820152600f60248201526e4e6f7420656e6f7567682043454c4f60881b604482015260649150fd5b5050346100af57816003193601126100af576020906002549051908152f35b82843461033f578160031936011261033f57506103386020926024359035610460565b9051908152f35b80fd5b5050346100af57816003193601126100af57905490516001600160a01b039091168152602090f35b5050346100af57816003193601126100af576020906003549051908152f35b833461033f578060031936011261033f576103a26103fe565b80546001600160a01b03198116825581906001600160a01b03167f8be0079c531659141344cd1fd0a4f28419497f9722a3daafe3b4186f6b6457e08280a380f35b84913461014257826003193601126101425760209250548152f35b6000546001600160a01b0316330361041257565b60405163118cdaa760e01b8152336004820152602490fd5b8181029291811591840414171561043d57565b634e487b7160e01b600052601160045260246000fd5b9190820180921161043d57565b61049d6104a3926104976003549161048e6104876104808360025461042a565b968361042a565b918061042a565b60011c90610453565b9061042a565b90610453565b90565b90601f8019910116810190811067ffffffffffffffff8211176104c857604052565b634e487b7160e01b600052604160045260246000fdfea2646970667358221220a3850a03f6c129726ff2c080adfb8aae34880fca9a51a322edcc65b5458f031864736f6c63430008140033",
  "linkReferences": {},
  "deployedLinkReferences": {}
}